{
  "contractName": "CouponToken",
  "abi": [
    {
      "inputs": [
        {
          "internalType": "uint256",
          "name": "initialSupply",
          "type": "uint256"
        }
      ],
      "stateMutability": "nonpayable",
      "type": "constructor"
    },
    {
      "inputs": [
        {
          "internalType": "address",
          "name": "spender",
          "type": "address"
        },
        {
          "internalType": "uint256",
          "name": "allowance",
          "type": "uint256"
        },
        {
          "internalType": "uint256",
          "name": "needed",
          "type": "uint256"
        }
      ],
      "name": "ERC20InsufficientAllowance",
      "type": "error"
    },
    {
      "inputs": [
        {
          "internalType": "address",
          "name": "sender",
          "type": "address"
        },
        {
          "internalType": "uint256",
          "name": "balance",
          "type": "uint256"
        },
        {
          "internalType": "uint256",
          "name": "needed",
          "type": "uint256"
        }
      ],
      "name": "ERC20InsufficientBalance",
      "type": "error"
    },
    {
      "inputs": [
        {
          "internalType": "address",
          "name": "approver",
          "type": "address"
        }
      ],
      "name": "ERC20InvalidApprover",
      "type": "error"
    },
    {
      "inputs": [
        {
          "internalType": "address",
          "name": "receiver",
          "type": "address"
        }
      ],
      "name": "ERC20InvalidReceiver",
      "type": "error"
    },
    {
      "inputs": [
        {
          "internalType": "address",
          "name": "sender",
          "type": "address"
        }
      ],
      "name": "ERC20InvalidSender",
      "type": "error"
    },
    {
      "inputs": [
        {
          "internalType": "address",
          "name": "spender",
          "type": "address"
        }
      ],
      "name": "ERC20InvalidSpender",
      "type": "error"
    },
    {
      "anonymous": false,
      "inputs": [
        {
          "indexed": true,
          "internalType": "address",
          "name": "owner",
          "type": "address"
        },
        {
          "indexed": true,
          "internalType": "address",
          "name": "spender",
          "type": "address"
        },
        {
          "indexed": false,
          "internalType": "uint256",
          "name": "value",
          "type": "uint256"
        }
      ],
      "name": "Approval",
      "type": "event"
    },
    {
      "anonymous": false,
      "inputs": [
        {
          "indexed": true,
          "internalType": "address",
          "name": "user",
          "type": "address"
        },
        {
          "indexed": false,
          "internalType": "uint256",
          "name": "amount",
          "type": "uint256"
        }
      ],
      "name": "Redeemed",
      "type": "event"
    },
    {
      "anonymous": false,
      "inputs": [
        {
          "indexed": true,
          "internalType": "address",
          "name": "from",
          "type": "address"
        },
        {
          "indexed": true,
          "internalType": "address",
          "name": "to",
          "type": "address"
        },
        {
          "indexed": false,
          "internalType": "uint256",
          "name": "value",
          "type": "uint256"
        }
      ],
      "name": "Transfer",
      "type": "event"
    },
    {
      "inputs": [
        {
          "internalType": "address",
          "name": "owner",
          "type": "address"
        },
        {
          "internalType": "address",
          "name": "spender",
          "type": "address"
        }
      ],
      "name": "allowance",
      "outputs": [
        {
          "internalType": "uint256",
          "name": "",
          "type": "uint256"
        }
      ],
      "stateMutability": "view",
      "type": "function",
      "constant": true
    },
    {
      "inputs": [
        {
          "internalType": "address",
          "name": "spender",
          "type": "address"
        },
        {
          "internalType": "uint256",
          "name": "value",
          "type": "uint256"
        }
      ],
      "name": "approve",
      "outputs": [
        {
          "internalType": "bool",
          "name": "",
          "type": "bool"
        }
      ],
      "stateMutability": "nonpayable",
      "type": "function"
    },
    {
      "inputs": [
        {
          "internalType": "address",
          "name": "account",
          "type": "address"
        }
      ],
      "name": "balanceOf",
      "outputs": [
        {
          "internalType": "uint256",
          "name": "",
          "type": "uint256"
        }
      ],
      "stateMutability": "view",
      "type": "function",
      "constant": true
    },
    {
      "inputs": [],
      "name": "decimals",
      "outputs": [
        {
          "internalType": "uint8",
          "name": "",
          "type": "uint8"
        }
      ],
      "stateMutability": "view",
      "type": "function",
      "constant": true
    },
    {
      "inputs": [],
      "name": "name",
      "outputs": [
        {
          "internalType": "string",
          "name": "",
          "type": "string"
        }
      ],
      "stateMutability": "view",
      "type": "function",
      "constant": true
    },
    {
      "inputs": [],
      "name": "symbol",
      "outputs": [
        {
          "internalType": "string",
          "name": "",
          "type": "string"
        }
      ],
      "stateMutability": "view",
      "type": "function",
      "constant": true
    },
    {
      "inputs": [],
      "name": "totalSupply",
      "outputs": [
        {
          "internalType": "uint256",
          "name": "",
          "type": "uint256"
        }
      ],
      "stateMutability": "view",
      "type": "function",
      "constant": true
    },
    {
      "inputs": [
        {
          "internalType": "address",
          "name": "to",
          "type": "address"
        },
        {
          "internalType": "uint256",
          "name": "value",
          "type": "uint256"
        }
      ],
      "name": "transfer",
      "outputs": [
        {
          "internalType": "bool",
          "name": "",
          "type": "bool"
        }
      ],
      "stateMutability": "nonpayable",
      "type": "function"
    },
    {
      "inputs": [
        {
          "internalType": "address",
          "name": "from",
          "type": "address"
        },
        {
          "internalType": "address",
          "name": "to",
          "type": "address"
        },
        {
          "internalType": "uint256",
          "name": "value",
          "type": "uint256"
        }
      ],
      "name": "transferFrom",
      "outputs": [
        {
          "internalType": "bool",
          "name": "",
          "type": "bool"
        }
      ],
      "stateMutability": "nonpayable",
      "type": "function"
    },
    {
      "inputs": [
        {
          "internalType": "uint256",
          "name": "amount",
          "type": "uint256"
        }
      ],
      "name": "redeem",
      "outputs": [],
      "stateMutability": "nonpayable",
      "type": "function"
    }
  ],
  "bytecode": "0x608060405234801562000010575f80fd5b506040516200184e3803806200184e8339818101604052810190620000369190620003cb565b6040518060400160405280600b81526020017f436f75706f6e546f6b656e0000000000000000000000000000000000000000008152506040518060400160405280600381526020017f43505400000000000000000000000000000000000000000000000000000000008152508160039081620000b3919062000656565b508060049081620000c5919062000656565b505050620000da3382620000e160201b60201c565b5062000866565b5f73ffffffffffffffffffffffffffffffffffffffff168273ffffffffffffffffffffffffffffffffffffffff160362000154575f6040517fec442f050000000000000000000000000000000000000000000000000000000081526004016200014b91906200077d565b60405180910390fd5b620001675f83836200016b60201b60201c565b5050565b5f73ffffffffffffffffffffffffffffffffffffffff168373ffffffffffffffffffffffffffffffffffffffff1603620001bf578060025f828254620001b29190620007c5565b9250508190555062000290565b5f805f8573ffffffffffffffffffffffffffffffffffffffff1673ffffffffffffffffffffffffffffffffffffffff1681526020019081526020015f20549050818110156200024b578381836040517fe450d38c000000000000000000000000000000000000000000000000000000008152600401620002429392919062000810565b60405180910390fd5b8181035f808673ffffffffffffffffffffffffffffffffffffffff1673ffffffffffffffffffffffffffffffffffffffff1681526020019081526020015f2081905550505b5f73ffffffffffffffffffffffffffffffffffffffff168273ffffffffffffffffffffffffffffffffffffffff1603620002d9578060025f828254039250508190555062000323565b805f808473ffffffffffffffffffffffffffffffffffffffff1673ffffffffffffffffffffffffffffffffffffffff1681526020019081526020015f205f82825401925050819055505b8173ffffffffffffffffffffffffffffffffffffffff168373ffffffffffffffffffffffffffffffffffffffff167fddf252ad1be2c89b69c2b068fc378daa952ba7f163c4a11628f55a4df523b3ef836040516200038291906200084b565b60405180910390a3505050565b5f80fd5b5f819050919050565b620003a78162000393565b8114620003b2575f80fd5b50565b5f81519050620003c5816200039c565b92915050565b5f60208284031215620003e357620003e26200038f565b5b5f620003f284828501620003b5565b91505092915050565b5f81519050919050565b7f4e487b71000000000000000000000000000000000000000000000000000000005f52604160045260245ffd5b7f4e487b71000000000000000000000000000000000000000000000000000000005f52602260045260245ffd5b5f60028204905060018216806200047757607f821691505b6020821081036200048d576200048c62000432565b5b50919050565b5f819050815f5260205f209050919050565b5f6020601f8301049050919050565b5f82821b905092915050565b5f60088302620004f17fffffffffffffffffffffffffffffffffffffffffffffffffffffffffffffffff82620004b4565b620004fd8683620004b4565b95508019841693508086168417925050509392505050565b5f819050919050565b5f6200053e62000538620005328462000393565b62000515565b62000393565b9050919050565b5f819050919050565b62000559836200051e565b62000571620005688262000545565b848454620004c0565b825550505050565b5f90565b6200058762000579565b620005948184846200054e565b505050565b5b81811015620005bb57620005af5f826200057d565b6001810190506200059a565b5050565b601f8211156200060a57620005d48162000493565b620005df84620004a5565b81016020851015620005ef578190505b62000607620005fe85620004a5565b83018262000599565b50505b505050565b5f82821c905092915050565b5f6200062c5f19846008026200060f565b1980831691505092915050565b5f6200064683836200061b565b9150826002028217905092915050565b6200066182620003fb565b67ffffffffffffffff8111156200067d576200067c62000405565b5b6200068982546200045f565b62000696828285620005bf565b5f60209050601f831160018114620006cc575f8415620006b7578287015190505b620006c3858262000639565b86555062000732565b601f198416620006dc8662000493565b5f5b828110156200070557848901518255600182019150602085019450602081019050620006de565b8683101562000725578489015162000721601f8916826200061b565b8355505b6001600288020188555050505b505050505050565b5f73ffffffffffffffffffffffffffffffffffffffff82169050919050565b5f62000765826200073a565b9050919050565b620007778162000759565b82525050565b5f602082019050620007925f8301846200076c565b92915050565b7f4e487b71000000000000000000000000000000000000000000000000000000005f52601160045260245ffd5b5f620007d18262000393565b9150620007de8362000393565b9250828201905080821115620007f957620007f862000798565b5b92915050565b6200080a8162000393565b82525050565b5f606082019050620008255f8301866200076c565b620008346020830185620007ff565b620008436040830184620007ff565b949350505050565b5f602082019050620008605f830184620007ff565b92915050565b610fda80620008745f395ff3fe608060405234801561000f575f80fd5b506004361061009c575f3560e01c806370a082311161006457806370a082311461015a57806395d89b411461018a578063a9059cbb146101a8578063db006a75146101d8578063dd62ed3e146101f45761009c565b806306fdde03146100a0578063095ea7b3146100be57806318160ddd146100ee57806323b872dd1461010c578063313ce5671461013c575b5f80fd5b6100a8610224565b6040516100b59190610bc0565b60405180910390f35b6100d860048036038101906100d39190610c71565b6102b4565b6040516100e59190610cc9565b60405180910390f35b6100f66102d6565b6040516101039190610cf1565b60405180910390f35b61012660048036038101906101219190610d0a565b6102df565b6040516101339190610cc9565b60405180910390f35b61014461030d565b6040516101519190610d75565b60405180910390f35b610174600480360381019061016f9190610d8e565b610315565b6040516101819190610cf1565b60405180910390f35b61019261035a565b60405161019f9190610bc0565b60405180910390f35b6101c260048036038101906101bd9190610c71565b6103ea565b6040516101cf9190610cc9565b60405180910390f35b6101f260048036038101906101ed9190610db9565b61040c565b005b61020e60048036038101906102099190610de4565b6104b2565b60405161021b9190610cf1565b60405180910390f35b60606003805461023390610e4f565b80601f016020809104026020016040519081016040528092919081815260200182805461025f90610e4f565b80156102aa5780601f10610281576101008083540402835291602001916102aa565b820191905f5260205f20905b81548152906001019060200180831161028d57829003601f168201915b5050505050905090565b5f806102be610534565b90506102cb81858561053b565b600191505092915050565b5f600254905090565b5f806102e9610534565b90506102f685828561054d565b6103018585856105df565b60019150509392505050565b5f6012905090565b5f805f8373ffffffffffffffffffffffffffffffffffffffff1673ffffffffffffffffffffffffffffffffffffffff1681526020019081526020015f20549050919050565b60606004805461036990610e4f565b80601f016020809104026020016040519081016040528092919081815260200182805461039590610e4f565b80156103e05780601f106103b7576101008083540402835291602001916103e0565b820191905f5260205f20905b8154815290600101906020018083116103c357829003601f168201915b5050505050905090565b5f806103f4610534565b90506104018185856105df565b600191505092915050565b8061041633610315565b1015610457576040517f08c379a000000000000000000000000000000000000000000000000000000000815260040161044e90610ec9565b60405180910390fd5b61046133826106cf565b3373ffffffffffffffffffffffffffffffffffffffff167f4896181ff8f4543cc00db9fe9b6fb7e6f032b7eb772c72ab1ec1b4d2e03b9369826040516104a79190610cf1565b60405180910390a250565b5f60015f8473ffffffffffffffffffffffffffffffffffffffff1673ffffffffffffffffffffffffffffffffffffffff1681526020019081526020015f205f8373ffffffffffffffffffffffffffffffffffffffff1673ffffffffffffffffffffffffffffffffffffffff1681526020019081526020015f2054905092915050565b5f33905090565b610548838383600161074e565b505050565b5f61055884846104b2565b90507fffffffffffffffffffffffffffffffffffffffffffffffffffffffffffffffff81146105d957818110156105ca578281836040517ffb8f41b20000000000000000000000000000000000000000000000000000000081526004016105c193929190610ef6565b60405180910390fd5b6105d884848484035f61074e565b5b50505050565b5f73ffffffffffffffffffffffffffffffffffffffff168373ffffffffffffffffffffffffffffffffffffffff160361064f575f6040517f96c6fd1e0000000000000000000000000000000000000000000000000000000081526004016106469190610f2b565b60405180910390fd5b5f73ffffffffffffffffffffffffffffffffffffffff168273ffffffffffffffffffffffffffffffffffffffff16036106bf575f6040517fec442f050000000000000000000000000000000000000000000000000000000081526004016106b69190610f2b565b60405180910390fd5b6106ca83838361091d565b505050565b5f73ffffffffffffffffffffffffffffffffffffffff168273ffffffffffffffffffffffffffffffffffffffff160361073f575f6040517f96c6fd1e0000000000000000000000000000000000000000000000000000000081526004016107369190610f2b565b60405180910390fd5b61074a825f8361091d565b5050565b5f73ffffffffffffffffffffffffffffffffffffffff168473ffffffffffffffffffffffffffffffffffffffff16036107be575f6040517fe602df050000000000000000000000000000000000000000000000000000000081526004016107b59190610f2b565b60405180910390fd5b5f73ffffffffffffffffffffffffffffffffffffffff168373ffffffffffffffffffffffffffffffffffffffff160361082e575f6040517f94280d620000000000000000000000000000000000000000000000000000000081526004016108259190610f2b565b60405180910390fd5b8160015f8673ffffffffffffffffffffffffffffffffffffffff1673ffffffffffffffffffffffffffffffffffffffff1681526020019081526020015f205f8573ffffffffffffffffffffffffffffffffffffffff1673ffffffffffffffffffffffffffffffffffffffff1681526020019081526020015f20819055508015610917578273ffffffffffffffffffffffffffffffffffffffff168473ffffffffffffffffffffffffffffffffffffffff167f8c5be1e5ebec7d5bd14f71427d1e84f3dd0314c0f7b2291e5b200ac8c7c3b9258460405161090e9190610cf1565b60405180910390a35b50505050565b5f73ffffffffffffffffffffffffffffffffffffffff168373ffffffffffffffffffffffffffffffffffffffff160361096d578060025f8282546109619190610f71565b92505081905550610a3b565b5f805f8573ffffffffffffffffffffffffffffffffffffffff1673ffffffffffffffffffffffffffffffffffffffff1681526020019081526020015f20549050818110156109f6578381836040517fe450d38c0000000000000000000000000000000000000000000000000000000081526004016109ed93929190610ef6565b60405180910390fd5b8181035f808673ffffffffffffffffffffffffffffffffffffffff1673ffffffffffffffffffffffffffffffffffffffff1681526020019081526020015f2081905550505b5f73ffffffffffffffffffffffffffffffffffffffff168273ffffffffffffffffffffffffffffffffffffffff1603610a82578060025f8282540392505081905550610acc565b805f808473ffffffffffffffffffffffffffffffffffffffff1673ffffffffffffffffffffffffffffffffffffffff1681526020019081526020015f205f82825401925050819055505b8173ffffffffffffffffffffffffffffffffffffffff168373ffffffffffffffffffffffffffffffffffffffff167fddf252ad1be2c89b69c2b068fc378daa952ba7f163c4a11628f55a4df523b3ef83604051610b299190610cf1565b60405180910390a3505050565b5f81519050919050565b5f82825260208201905092915050565b5f5b83811015610b6d578082015181840152602081019050610b52565b5f8484015250505050565b5f601f19601f8301169050919050565b5f610b9282610b36565b610b9c8185610b40565b9350610bac818560208601610b50565b610bb581610b78565b840191505092915050565b5f6020820190508181035f830152610bd88184610b88565b905092915050565b5f80fd5b5f73ffffffffffffffffffffffffffffffffffffffff82169050919050565b5f610c0d82610be4565b9050919050565b610c1d81610c03565b8114610c27575f80fd5b50565b5f81359050610c3881610c14565b92915050565b5f819050919050565b610c5081610c3e565b8114610c5a575f80fd5b50565b5f81359050610c6b81610c47565b92915050565b5f8060408385031215610c8757610c86610be0565b5b5f610c9485828601610c2a565b9250506020610ca585828601610c5d565b9150509250929050565b5f8115159050919050565b610cc381610caf565b82525050565b5f602082019050610cdc5f830184610cba565b92915050565b610ceb81610c3e565b82525050565b5f602082019050610d045f830184610ce2565b92915050565b5f805f60608486031215610d2157610d20610be0565b5b5f610d2e86828701610c2a565b9350506020610d3f86828701610c2a565b9250506040610d5086828701610c5d565b9150509250925092565b5f60ff82169050919050565b610d6f81610d5a565b82525050565b5f602082019050610d885f830184610d66565b92915050565b5f60208284031215610da357610da2610be0565b5b5f610db084828501610c2a565b91505092915050565b5f60208284031215610dce57610dcd610be0565b5b5f610ddb84828501610c5d565b91505092915050565b5f8060408385031215610dfa57610df9610be0565b5b5f610e0785828601610c2a565b9250506020610e1885828601610c2a565b9150509250929050565b7f4e487b71000000000000000000000000000000000000000000000000000000005f52602260045260245ffd5b5f6002820490506001821680610e6657607f821691505b602082108103610e7957610e78610e22565b5b50919050565b7f4e6f7420656e6f75676820636f75706f6e7320746f2072656465656d000000005f82015250565b5f610eb3601c83610b40565b9150610ebe82610e7f565b602082019050919050565b5f6020820190508181035f830152610ee081610ea7565b9050919050565b610ef081610c03565b82525050565b5f606082019050610f095f830186610ee7565b610f166020830185610ce2565b610f236040830184610ce2565b949350505050565b5f602082019050610f3e5f830184610ee7565b92915050565b7f4e487b71000000000000000000000000000000000000000000000000000000005f52601160045260245ffd5b5f610f7b82610c3e565b9150610f8683610c3e565b9250828201905080821115610f9e57610f9d610f44565b5b9291505056fea264697066735822122044c9f531da12fb101f309017ca3345cb871562e15c5c2c572508a79a478702bd64736f6c63430008150033",
  "immutableReferences": {},
  "source": "// SPDX-License-Identifier: MIT\r\npragma solidity ^0.8.4;\r\n\r\nimport \"@openzeppelin/contracts/token/ERC20/ERC20.sol\";\r\n\r\ncontract CouponToken is ERC20 {\r\n    constructor(uint256 initialSupply) ERC20(\"CouponToken\", \"CPT\") {\r\n        _mint(msg.sender, initialSupply);\r\n    }\r\n\r\n    function redeem(uint256 amount) public {\r\n        require(balanceOf(msg.sender) >= amount, \"Not enough coupons to redeem\");\r\n        _burn(msg.sender, amount);\r\n        emit Redeemed(msg.sender, amount);\r\n    }\r\n\r\n    event Redeemed(address indexed user, uint256 amount);\r\n}\r\n",
  "sourcePath": "C:\\Users\\Max\\Developer\\viva\\contracts\\coupon.sol",
  "compiler": {
    "name": "solc",
    "version": "0.8.21+commit.d9974bed.Emscripten.clang"
  },
  "schemaVersion": "3.4.16",
  "updatedAt": "2024-05-14T19:34:03.530Z",
  "networkType": "ethereum",
  "devdoc": {
    "errors": {
      "ERC20InsufficientAllowance(address,uint256,uint256)": [
        {
          "details": "Indicates a failure with the `spender`s `allowance`. Used in transfers.",
          "params": {
            "allowance": "Amount of tokens a `spender` is allowed to operate with.",
            "needed": "Minimum amount required to perform a transfer.",
            "spender": "Address that may be allowed to operate on tokens without being their owner."
          }
        }
      ],
      "ERC20InsufficientBalance(address,uint256,uint256)": [
        {
          "details": "Indicates an error related to the current `balance` of a `sender`. Used in transfers.",
          "params": {
            "balance": "Current balance for the interacting account.",
            "needed": "Minimum amount required to perform a transfer.",
            "sender": "Address whose tokens are being transferred."
          }
        }
      ],
      "ERC20InvalidApprover(address)": [
        {
          "details": "Indicates a failure with the `approver` of a token to be approved. Used in approvals.",
          "params": {
            "approver": "Address initiating an approval operation."
          }
        }
      ],
      "ERC20InvalidReceiver(address)": [
        {
          "details": "Indicates a failure with the token `receiver`. Used in transfers.",
          "params": {
            "receiver": "Address to which tokens are being transferred."
          }
        }
      ],
      "ERC20InvalidSender(address)": [
        {
          "details": "Indicates a failure with the token `sender`. Used in transfers.",
          "params": {
            "sender": "Address whose tokens are being transferred."
          }
        }
      ],
      "ERC20InvalidSpender(address)": [
        {
          "details": "Indicates a failure with the `spender` to be approved. Used in approvals.",
          "params": {
            "spender": "Address that may be allowed to operate on tokens without being their owner."
          }
        }
      ]
    },
    "events": {
      "Approval(address,address,uint256)": {
        "details": "Emitted when the allowance of a `spender` for an `owner` is set by a call to {approve}. `value` is the new allowance."
      },
      "Transfer(address,address,uint256)": {
        "details": "Emitted when `value` tokens are moved from one account (`from`) to another (`to`). Note that `value` may be zero."
      }
    },
    "kind": "dev",
    "methods": {
      "allowance(address,address)": {
        "details": "See {IERC20-allowance}."
      },
      "approve(address,uint256)": {
        "details": "See {IERC20-approve}. NOTE: If `value` is the maximum `uint256`, the allowance is not updated on `transferFrom`. This is semantically equivalent to an infinite approval. Requirements: - `spender` cannot be the zero address."
      },
      "balanceOf(address)": {
        "details": "See {IERC20-balanceOf}."
      },
      "decimals()": {
        "details": "Returns the number of decimals used to get its user representation. For example, if `decimals` equals `2`, a balance of `505` tokens should be displayed to a user as `5.05` (`505 / 10 ** 2`). Tokens usually opt for a value of 18, imitating the relationship between Ether and Wei. This is the default value returned by this function, unless it's overridden. NOTE: This information is only used for _display_ purposes: it in no way affects any of the arithmetic of the contract, including {IERC20-balanceOf} and {IERC20-transfer}."
      },
      "name()": {
        "details": "Returns the name of the token."
      },
      "symbol()": {
        "details": "Returns the symbol of the token, usually a shorter version of the name."
      },
      "totalSupply()": {
        "details": "See {IERC20-totalSupply}."
      },
      "transfer(address,uint256)": {
        "details": "See {IERC20-transfer}. Requirements: - `to` cannot be the zero address. - the caller must have a balance of at least `value`."
      },
      "transferFrom(address,address,uint256)": {
        "details": "See {IERC20-transferFrom}. Emits an {Approval} event indicating the updated allowance. This is not required by the EIP. See the note at the beginning of {ERC20}. NOTE: Does not update the allowance if the current allowance is the maximum `uint256`. Requirements: - `from` and `to` cannot be the zero address. - `from` must have a balance of at least `value`. - the caller must have allowance for ``from``'s tokens of at least `value`."
      }
    },
    "version": 1
  },
  "userdoc": {
    "kind": "user",
    "methods": {},
    "version": 1
  }
}