{
  "contractName": "Discount10Coupon",
  "abi": [
    {
      "inputs": [
        {
          "internalType": "address",
          "name": "_licenser",
          "type": "address"
        }
      ],
      "stateMutability": "nonpayable",
      "type": "constructor"
    },
    {
      "anonymous": false,
      "inputs": [
        {
          "indexed": true,
          "internalType": "address",
          "name": "owner",
          "type": "address"
        },
        {
          "indexed": true,
          "internalType": "address",
          "name": "spender",
          "type": "address"
        },
        {
          "indexed": false,
          "internalType": "uint256",
          "name": "value",
          "type": "uint256"
        }
      ],
      "name": "Approval",
      "type": "event"
    },
    {
      "anonymous": false,
      "inputs": [
        {
          "indexed": true,
          "internalType": "address",
          "name": "to",
          "type": "address"
        },
        {
          "indexed": false,
          "internalType": "uint256",
          "name": "amount",
          "type": "uint256"
        }
      ],
      "name": "Minted",
      "type": "event"
    },
    {
      "anonymous": false,
      "inputs": [
        {
          "indexed": true,
          "internalType": "address",
          "name": "user",
          "type": "address"
        },
        {
          "indexed": false,
          "internalType": "uint256",
          "name": "amount",
          "type": "uint256"
        }
      ],
      "name": "Redeemed",
      "type": "event"
    },
    {
      "anonymous": false,
      "inputs": [
        {
          "indexed": true,
          "internalType": "address",
          "name": "from",
          "type": "address"
        },
        {
          "indexed": true,
          "internalType": "address",
          "name": "to",
          "type": "address"
        },
        {
          "indexed": false,
          "internalType": "uint256",
          "name": "value",
          "type": "uint256"
        }
      ],
      "name": "Transfer",
      "type": "event"
    },
    {
      "inputs": [
        {
          "internalType": "address",
          "name": "owner",
          "type": "address"
        },
        {
          "internalType": "address",
          "name": "spender",
          "type": "address"
        }
      ],
      "name": "allowance",
      "outputs": [
        {
          "internalType": "uint256",
          "name": "",
          "type": "uint256"
        }
      ],
      "stateMutability": "view",
      "type": "function",
      "constant": true
    },
    {
      "inputs": [
        {
          "internalType": "address",
          "name": "spender",
          "type": "address"
        },
        {
          "internalType": "uint256",
          "name": "amount",
          "type": "uint256"
        }
      ],
      "name": "approve",
      "outputs": [
        {
          "internalType": "bool",
          "name": "",
          "type": "bool"
        }
      ],
      "stateMutability": "nonpayable",
      "type": "function"
    },
    {
      "inputs": [
        {
          "internalType": "address",
          "name": "account",
          "type": "address"
        }
      ],
      "name": "balanceOf",
      "outputs": [
        {
          "internalType": "uint256",
          "name": "",
          "type": "uint256"
        }
      ],
      "stateMutability": "view",
      "type": "function",
      "constant": true
    },
    {
      "inputs": [],
      "name": "decimals",
      "outputs": [
        {
          "internalType": "uint8",
          "name": "",
          "type": "uint8"
        }
      ],
      "stateMutability": "view",
      "type": "function",
      "constant": true
    },
    {
      "inputs": [
        {
          "internalType": "address",
          "name": "spender",
          "type": "address"
        },
        {
          "internalType": "uint256",
          "name": "subtractedValue",
          "type": "uint256"
        }
      ],
      "name": "decreaseAllowance",
      "outputs": [
        {
          "internalType": "bool",
          "name": "",
          "type": "bool"
        }
      ],
      "stateMutability": "nonpayable",
      "type": "function"
    },
    {
      "inputs": [
        {
          "internalType": "address",
          "name": "spender",
          "type": "address"
        },
        {
          "internalType": "uint256",
          "name": "addedValue",
          "type": "uint256"
        }
      ],
      "name": "increaseAllowance",
      "outputs": [
        {
          "internalType": "bool",
          "name": "",
          "type": "bool"
        }
      ],
      "stateMutability": "nonpayable",
      "type": "function"
    },
    {
      "inputs": [],
      "name": "licenser",
      "outputs": [
        {
          "internalType": "address",
          "name": "",
          "type": "address"
        }
      ],
      "stateMutability": "view",
      "type": "function",
      "constant": true
    },
    {
      "inputs": [],
      "name": "name",
      "outputs": [
        {
          "internalType": "string",
          "name": "",
          "type": "string"
        }
      ],
      "stateMutability": "view",
      "type": "function",
      "constant": true
    },
    {
      "inputs": [],
      "name": "symbol",
      "outputs": [
        {
          "internalType": "string",
          "name": "",
          "type": "string"
        }
      ],
      "stateMutability": "view",
      "type": "function",
      "constant": true
    },
    {
      "inputs": [],
      "name": "totalSupply",
      "outputs": [
        {
          "internalType": "uint256",
          "name": "",
          "type": "uint256"
        }
      ],
      "stateMutability": "view",
      "type": "function",
      "constant": true
    },
    {
      "inputs": [
        {
          "internalType": "address",
          "name": "recipient",
          "type": "address"
        },
        {
          "internalType": "uint256",
          "name": "amount",
          "type": "uint256"
        }
      ],
      "name": "transfer",
      "outputs": [
        {
          "internalType": "bool",
          "name": "",
          "type": "bool"
        }
      ],
      "stateMutability": "nonpayable",
      "type": "function"
    },
    {
      "inputs": [
        {
          "internalType": "address",
          "name": "sender",
          "type": "address"
        },
        {
          "internalType": "address",
          "name": "recipient",
          "type": "address"
        },
        {
          "internalType": "uint256",
          "name": "amount",
          "type": "uint256"
        }
      ],
      "name": "transferFrom",
      "outputs": [
        {
          "internalType": "bool",
          "name": "",
          "type": "bool"
        }
      ],
      "stateMutability": "nonpayable",
      "type": "function"
    },
    {
      "inputs": [
        {
          "internalType": "uint256",
          "name": "amount",
          "type": "uint256"
        }
      ],
      "name": "redeem",
      "outputs": [],
      "stateMutability": "nonpayable",
      "type": "function"
    },
    {
      "inputs": [
        {
          "internalType": "address",
          "name": "to",
          "type": "address"
        },
        {
          "internalType": "uint256",
          "name": "amount",
          "type": "uint256"
        },
        {
          "internalType": "bytes32",
          "name": "messageHash",
          "type": "bytes32"
        },
        {
          "internalType": "bytes",
          "name": "signature",
          "type": "bytes"
        }
      ],
      "name": "mint",
      "outputs": [],
      "stateMutability": "nonpayable",
      "type": "function"
    },
    {
      "inputs": [
        {
          "internalType": "bytes32",
          "name": "messageHash",
          "type": "bytes32"
        },
        {
          "internalType": "bytes",
          "name": "signature",
          "type": "bytes"
        },
        {
          "internalType": "address",
          "name": "expectedSigner",
          "type": "address"
        }
      ],
      "name": "verifySignature",
      "outputs": [
        {
          "internalType": "bool",
          "name": "",
          "type": "bool"
        }
      ],
      "stateMutability": "pure",
      "type": "function",
      "constant": true
    }
  ],
  "bytecode": "0x60806040523480156200001157600080fd5b506040516200260b3803806200260b8339818101604052810190620000379190620003b5565b6040518060400160405280601081526020017f446973636f756e743130436f75706f6e000000000000000000000000000000008152506040518060400160405280601081526020017f446973636f756e743130436f75706f6e000000000000000000000000000000008152508160039080519060200190620000bb9291906200029b565b508060049080519060200190620000d49291906200029b565b50505080600560006101000a81548173ffffffffffffffffffffffffffffffffffffffff021916908373ffffffffffffffffffffffffffffffffffffffff1602179055506200012b3360006200013260201b60201c565b5062000592565b600073ffffffffffffffffffffffffffffffffffffffff168273ffffffffffffffffffffffffffffffffffffffff1603620001a4576040517f08c379a00000000000000000000000000000000000000000000000000000000081526004016200019b9062000448565b60405180910390fd5b620001b8600083836200029660201b60201c565b8060026000828254620001cc9190620004a3565b92505081905550806000808473ffffffffffffffffffffffffffffffffffffffff1673ffffffffffffffffffffffffffffffffffffffff1681526020019081526020016000206000828254620002239190620004a3565b925050819055508173ffffffffffffffffffffffffffffffffffffffff16600073ffffffffffffffffffffffffffffffffffffffff167fddf252ad1be2c89b69c2b068fc378daa952ba7f163c4a11628f55a4df523b3ef836040516200028a919062000511565b60405180910390a35050565b505050565b828054620002a9906200055d565b90600052602060002090601f016020900481019282620002cd576000855562000319565b82601f10620002e857805160ff191683800117855562000319565b8280016001018555821562000319579182015b8281111562000318578251825591602001919060010190620002fb565b5b5090506200032891906200032c565b5090565b5b80821115620003475760008160009055506001016200032d565b5090565b600080fd5b600073ffffffffffffffffffffffffffffffffffffffff82169050919050565b60006200037d8262000350565b9050919050565b6200038f8162000370565b81146200039b57600080fd5b50565b600081519050620003af8162000384565b92915050565b600060208284031215620003ce57620003cd6200034b565b5b6000620003de848285016200039e565b91505092915050565b600082825260208201905092915050565b7f45524332303a206d696e7420746f20746865207a65726f206164647265737300600082015250565b600062000430601f83620003e7565b91506200043d82620003f8565b602082019050919050565b60006020820190508181036000830152620004638162000421565b9050919050565b6000819050919050565b7f4e487b7100000000000000000000000000000000000000000000000000000000600052601160045260246000fd5b6000620004b0826200046a565b9150620004bd836200046a565b9250827fffffffffffffffffffffffffffffffffffffffffffffffffffffffffffffffff03821115620004f557620004f462000474565b5b828201905092915050565b6200050b816200046a565b82525050565b600060208201905062000528600083018462000500565b92915050565b7f4e487b7100000000000000000000000000000000000000000000000000000000600052602260045260246000fd5b600060028204905060018216806200057657607f821691505b6020821081036200058c576200058b6200052e565b5b50919050565b61206980620005a26000396000f3fe608060405234801561001057600080fd5b50600436106100f55760003560e01c806370a0823111610097578063a9059cbb11610066578063a9059cbb146102ae578063db006a75146102de578063dd62ed3e146102fa578063f790d78f1461032a576100f5565b806370a082311461021457806395d89b411461024457806396d66de014610262578063a457c2d71461027e576100f5565b806323b872dd116100d357806323b872dd14610166578063313ce5671461019657806331cd4199146101b457806339509351146101e4576100f5565b806306fdde03146100fa578063095ea7b31461011857806318160ddd14610148575b600080fd5b610102610348565b60405161010f91906112df565b60405180910390f35b610132600480360381019061012d91906113a9565b6103da565b60405161013f9190611404565b60405180910390f35b6101506103f8565b60405161015d919061142e565b60405180910390f35b610180600480360381019061017b9190611449565b610402565b60405161018d9190611404565b60405180910390f35b61019e610503565b6040516101ab91906114b8565b60405180910390f35b6101ce60048036038101906101c9919061163e565b61050c565b6040516101db9190611404565b60405180910390f35b6101fe60048036038101906101f991906113a9565b6105b0565b60405161020b9190611404565b60405180910390f35b61022e600480360381019061022991906116ad565b61065c565b60405161023b919061142e565b60405180910390f35b61024c6106a4565b60405161025991906112df565b60405180910390f35b61027c600480360381019061027791906116da565b610736565b005b610298600480360381019061029391906113a9565b610800565b6040516102a59190611404565b60405180910390f35b6102c860048036038101906102c391906113a9565b6108f4565b6040516102d59190611404565b60405180910390f35b6102f860048036038101906102f3919061175d565b610912565b005b610314600480360381019061030f919061178a565b6109b8565b604051610321919061142e565b60405180910390f35b610332610a3f565b60405161033f91906117d9565b60405180910390f35b60606003805461035790611823565b80601f016020809104026020016040519081016040528092919081815260200182805461038390611823565b80156103d05780601f106103a5576101008083540402835291602001916103d0565b820191906000526020600020905b8154815290600101906020018083116103b357829003601f168201915b5050505050905090565b60006103ee6103e7610a65565b8484610a6d565b6001905092915050565b6000600254905090565b600061040f848484610c36565b6000600160008673ffffffffffffffffffffffffffffffffffffffff1673ffffffffffffffffffffffffffffffffffffffff168152602001908152602001600020600061045a610a65565b73ffffffffffffffffffffffffffffffffffffffff1673ffffffffffffffffffffffffffffffffffffffff168152602001908152602001600020549050828110156104da576040517f08c379a00000000000000000000000000000000000000000000000000000000081526004016104d1906118c6565b60405180910390fd5b6104f7856104e6610a65565b85846104f29190611915565b610a6d565b60019150509392505050565b60006012905090565b60008060008061051b86610eb3565b8094508195508293505050508473ffffffffffffffffffffffffffffffffffffffff16600188838686604051600081526020016040526040516105619493929190611958565b6020604051602081039080840390855afa158015610583573d6000803e3d6000fd5b5050506020604051035173ffffffffffffffffffffffffffffffffffffffff161493505050509392505050565b60006106526105bd610a65565b8484600160006105cb610a65565b73ffffffffffffffffffffffffffffffffffffffff1673ffffffffffffffffffffffffffffffffffffffff16815260200190815260200160002060008873ffffffffffffffffffffffffffffffffffffffff1673ffffffffffffffffffffffffffffffffffffffff1681526020019081526020016000205461064d919061199d565b610a6d565b6001905092915050565b60008060008373ffffffffffffffffffffffffffffffffffffffff1673ffffffffffffffffffffffffffffffffffffffff168152602001908152602001600020549050919050565b6060600480546106b390611823565b80601f01602080910402602001604051908101604052809291908181526020018280546106df90611823565b801561072c5780601f106107015761010080835404028352916020019161072c565b820191906000526020600020905b81548152906001019060200180831161070f57829003601f168201915b5050505050905090565b6107638282600560009054906101000a900473ffffffffffffffffffffffffffffffffffffffff1661050c565b6107a2576040517f08c379a000000000000000000000000000000000000000000000000000000000815260040161079990611a3f565b60405180910390fd5b6107ac8484610f1b565b8373ffffffffffffffffffffffffffffffffffffffff167f30385c845b448a36257a6a1716e6ad2e1bc2cbe333cde1e69fe849ad6511adfe846040516107f2919061142e565b60405180910390a250505050565b6000806001600061080f610a65565b73ffffffffffffffffffffffffffffffffffffffff1673ffffffffffffffffffffffffffffffffffffffff16815260200190815260200160002060008573ffffffffffffffffffffffffffffffffffffffff1673ffffffffffffffffffffffffffffffffffffffff168152602001908152602001600020549050828110156108cc576040517f08c379a00000000000000000000000000000000000000000000000000000000081526004016108c390611ad1565b60405180910390fd5b6108e96108d7610a65565b8585846108e49190611915565b610a6d565b600191505092915050565b6000610908610901610a65565b8484610c36565b6001905092915050565b8061091c3361065c565b101561095d576040517f08c379a000000000000000000000000000000000000000000000000000000000815260040161095490611b3d565b60405180910390fd5b610967338261106e565b3373ffffffffffffffffffffffffffffffffffffffff167f4896181ff8f4543cc00db9fe9b6fb7e6f032b7eb772c72ab1ec1b4d2e03b9369826040516109ad919061142e565b60405180910390a250565b6000600160008473ffffffffffffffffffffffffffffffffffffffff1673ffffffffffffffffffffffffffffffffffffffff16815260200190815260200160002060008373ffffffffffffffffffffffffffffffffffffffff1673ffffffffffffffffffffffffffffffffffffffff16815260200190815260200160002054905092915050565b600560009054906101000a900473ffffffffffffffffffffffffffffffffffffffff1681565b600033905090565b600073ffffffffffffffffffffffffffffffffffffffff168373ffffffffffffffffffffffffffffffffffffffff1603610adc576040517f08c379a0000000000000000000000000000000000000000000000000000000008152600401610ad390611bcf565b60405180910390fd5b600073ffffffffffffffffffffffffffffffffffffffff168273ffffffffffffffffffffffffffffffffffffffff1603610b4b576040517f08c379a0000000000000000000000000000000000000000000000000000000008152600401610b4290611c61565b60405180910390fd5b80600160008573ffffffffffffffffffffffffffffffffffffffff1673ffffffffffffffffffffffffffffffffffffffff16815260200190815260200160002060008473ffffffffffffffffffffffffffffffffffffffff1673ffffffffffffffffffffffffffffffffffffffff168152602001908152602001600020819055508173ffffffffffffffffffffffffffffffffffffffff168373ffffffffffffffffffffffffffffffffffffffff167f8c5be1e5ebec7d5bd14f71427d1e84f3dd0314c0f7b2291e5b200ac8c7c3b92583604051610c29919061142e565b60405180910390a3505050565b600073ffffffffffffffffffffffffffffffffffffffff168373ffffffffffffffffffffffffffffffffffffffff1603610ca5576040517f08c379a0000000000000000000000000000000000000000000000000000000008152600401610c9c90611cf3565b60405180910390fd5b600073ffffffffffffffffffffffffffffffffffffffff168273ffffffffffffffffffffffffffffffffffffffff1603610d14576040517f08c379a0000000000000000000000000000000000000000000000000000000008152600401610d0b90611d85565b60405180910390fd5b610d1f838383611241565b60008060008573ffffffffffffffffffffffffffffffffffffffff1673ffffffffffffffffffffffffffffffffffffffff16815260200190815260200160002054905081811015610da5576040517f08c379a0000000000000000000000000000000000000000000000000000000008152600401610d9c90611e17565b60405180910390fd5b8181610db19190611915565b6000808673ffffffffffffffffffffffffffffffffffffffff1673ffffffffffffffffffffffffffffffffffffffff16815260200190815260200160002081905550816000808573ffffffffffffffffffffffffffffffffffffffff1673ffffffffffffffffffffffffffffffffffffffff1681526020019081526020016000206000828254610e41919061199d565b925050819055508273ffffffffffffffffffffffffffffffffffffffff168473ffffffffffffffffffffffffffffffffffffffff167fddf252ad1be2c89b69c2b068fc378daa952ba7f163c4a11628f55a4df523b3ef84604051610ea5919061142e565b60405180910390a350505050565b60008060006041845114610efc576040517f08c379a0000000000000000000000000000000000000000000000000000000008152600401610ef390611e83565b60405180910390fd5b6020840151915060408401519050606084015160001a92509193909250565b600073ffffffffffffffffffffffffffffffffffffffff168273ffffffffffffffffffffffffffffffffffffffff1603610f8a576040517f08c379a0000000000000000000000000000000000000000000000000000000008152600401610f8190611eef565b60405180910390fd5b610f9660008383611241565b8060026000828254610fa8919061199d565b92505081905550806000808473ffffffffffffffffffffffffffffffffffffffff1673ffffffffffffffffffffffffffffffffffffffff1681526020019081526020016000206000828254610ffd919061199d565b925050819055508173ffffffffffffffffffffffffffffffffffffffff16600073ffffffffffffffffffffffffffffffffffffffff167fddf252ad1be2c89b69c2b068fc378daa952ba7f163c4a11628f55a4df523b3ef83604051611062919061142e565b60405180910390a35050565b600073ffffffffffffffffffffffffffffffffffffffff168273ffffffffffffffffffffffffffffffffffffffff16036110dd576040517f08c379a00000000000000000000000000000000000000000000000000000000081526004016110d490611f81565b60405180910390fd5b6110e982600083611241565b60008060008473ffffffffffffffffffffffffffffffffffffffff1673ffffffffffffffffffffffffffffffffffffffff1681526020019081526020016000205490508181101561116f576040517f08c379a000000000000000000000000000000000000000000000000000000000815260040161116690612013565b60405180910390fd5b818161117b9190611915565b6000808573ffffffffffffffffffffffffffffffffffffffff1673ffffffffffffffffffffffffffffffffffffffff1681526020019081526020016000208190555081600260008282546111cf9190611915565b92505081905550600073ffffffffffffffffffffffffffffffffffffffff168373ffffffffffffffffffffffffffffffffffffffff167fddf252ad1be2c89b69c2b068fc378daa952ba7f163c4a11628f55a4df523b3ef84604051611234919061142e565b60405180910390a3505050565b505050565b600081519050919050565b600082825260208201905092915050565b60005b83811015611280578082015181840152602081019050611265565b8381111561128f576000848401525b50505050565b6000601f19601f8301169050919050565b60006112b182611246565b6112bb8185611251565b93506112cb818560208601611262565b6112d481611295565b840191505092915050565b600060208201905081810360008301526112f981846112a6565b905092915050565b6000604051905090565b600080fd5b600080fd5b600073ffffffffffffffffffffffffffffffffffffffff82169050919050565b600061134082611315565b9050919050565b61135081611335565b811461135b57600080fd5b50565b60008135905061136d81611347565b92915050565b6000819050919050565b61138681611373565b811461139157600080fd5b50565b6000813590506113a38161137d565b92915050565b600080604083850312156113c0576113bf61130b565b5b60006113ce8582860161135e565b92505060206113df85828601611394565b9150509250929050565b60008115159050919050565b6113fe816113e9565b82525050565b600060208201905061141960008301846113f5565b92915050565b61142881611373565b82525050565b6000602082019050611443600083018461141f565b92915050565b6000806000606084860312156114625761146161130b565b5b60006114708682870161135e565b93505060206114818682870161135e565b925050604061149286828701611394565b9150509250925092565b600060ff82169050919050565b6114b28161149c565b82525050565b60006020820190506114cd60008301846114a9565b92915050565b6000819050919050565b6114e6816114d3565b81146114f157600080fd5b50565b600081359050611503816114dd565b92915050565b600080fd5b600080fd5b7f4e487b7100000000000000000000000000000000000000000000000000000000600052604160045260246000fd5b61154b82611295565b810181811067ffffffffffffffff8211171561156a57611569611513565b5b80604052505050565b600061157d611301565b90506115898282611542565b919050565b600067ffffffffffffffff8211156115a9576115a8611513565b5b6115b282611295565b9050602081019050919050565b82818337600083830152505050565b60006115e16115dc8461158e565b611573565b9050828152602081018484840111156115fd576115fc61150e565b5b6116088482856115bf565b509392505050565b600082601f83011261162557611624611509565b5b81356116358482602086016115ce565b91505092915050565b6000806000606084860312156116575761165661130b565b5b6000611665868287016114f4565b935050602084013567ffffffffffffffff81111561168657611685611310565b5b61169286828701611610565b92505060406116a38682870161135e565b9150509250925092565b6000602082840312156116c3576116c261130b565b5b60006116d18482850161135e565b91505092915050565b600080600080608085870312156116f4576116f361130b565b5b60006117028782880161135e565b945050602061171387828801611394565b9350506040611724878288016114f4565b925050606085013567ffffffffffffffff81111561174557611744611310565b5b61175187828801611610565b91505092959194509250565b6000602082840312156117735761177261130b565b5b600061178184828501611394565b91505092915050565b600080604083850312156117a1576117a061130b565b5b60006117af8582860161135e565b92505060206117c08582860161135e565b9150509250929050565b6117d381611335565b82525050565b60006020820190506117ee60008301846117ca565b92915050565b7f4e487b7100000000000000000000000000000000000000000000000000000000600052602260045260246000fd5b6000600282049050600182168061183b57607f821691505b60208210810361184e5761184d6117f4565b5b50919050565b7f45524332303a207472616e7366657220616d6f756e742065786365656473206160008201527f6c6c6f77616e6365000000000000000000000000000000000000000000000000602082015250565b60006118b0602883611251565b91506118bb82611854565b604082019050919050565b600060208201905081810360008301526118df816118a3565b9050919050565b7f4e487b7100000000000000000000000000000000000000000000000000000000600052601160045260246000fd5b600061192082611373565b915061192b83611373565b92508282101561193e5761193d6118e6565b5b828203905092915050565b611952816114d3565b82525050565b600060808201905061196d6000830187611949565b61197a60208301866114a9565b6119876040830185611949565b6119946060830184611949565b95945050505050565b60006119a882611373565b91506119b383611373565b9250827fffffffffffffffffffffffffffffffffffffffffffffffffffffffffffffffff038211156119e8576119e76118e6565b5b828201905092915050565b7f496e76616c6964207369676e6174757265000000000000000000000000000000600082015250565b6000611a29601183611251565b9150611a34826119f3565b602082019050919050565b60006020820190508181036000830152611a5881611a1c565b9050919050565b7f45524332303a2064656372656173656420616c6c6f77616e63652062656c6f7760008201527f207a65726f000000000000000000000000000000000000000000000000000000602082015250565b6000611abb602583611251565b9150611ac682611a5f565b604082019050919050565b60006020820190508181036000830152611aea81611aae565b9050919050565b7f4e6f7420656e6f75676820636f75706f6e7320746f2072656465656d00000000600082015250565b6000611b27601c83611251565b9150611b3282611af1565b602082019050919050565b60006020820190508181036000830152611b5681611b1a565b9050919050565b7f45524332303a20617070726f76652066726f6d20746865207a65726f2061646460008201527f7265737300000000000000000000000000000000000000000000000000000000602082015250565b6000611bb9602483611251565b9150611bc482611b5d565b604082019050919050565b60006020820190508181036000830152611be881611bac565b9050919050565b7f45524332303a20617070726f766520746f20746865207a65726f20616464726560008201527f7373000000000000000000000000000000000000000000000000000000000000602082015250565b6000611c4b602283611251565b9150611c5682611bef565b604082019050919050565b60006020820190508181036000830152611c7a81611c3e565b9050919050565b7f45524332303a207472616e736665722066726f6d20746865207a65726f20616460008201527f6472657373000000000000000000000000000000000000000000000000000000602082015250565b6000611cdd602583611251565b9150611ce882611c81565b604082019050919050565b60006020820190508181036000830152611d0c81611cd0565b9050919050565b7f45524332303a207472616e7366657220746f20746865207a65726f206164647260008201527f6573730000000000000000000000000000000000000000000000000000000000602082015250565b6000611d6f602383611251565b9150611d7a82611d13565b604082019050919050565b60006020820190508181036000830152611d9e81611d62565b9050919050565b7f45524332303a207472616e7366657220616d6f756e742065786365656473206260008201527f616c616e63650000000000000000000000000000000000000000000000000000602082015250565b6000611e01602683611251565b9150611e0c82611da5565b604082019050919050565b60006020820190508181036000830152611e3081611df4565b9050919050565b7f496e76616c6964207369676e6174757265206c656e6774680000000000000000600082015250565b6000611e6d601883611251565b9150611e7882611e37565b602082019050919050565b60006020820190508181036000830152611e9c81611e60565b9050919050565b7f45524332303a206d696e7420746f20746865207a65726f206164647265737300600082015250565b6000611ed9601f83611251565b9150611ee482611ea3565b602082019050919050565b60006020820190508181036000830152611f0881611ecc565b9050919050565b7f45524332303a206275726e2066726f6d20746865207a65726f2061646472657360008201527f7300000000000000000000000000000000000000000000000000000000000000602082015250565b6000611f6b602183611251565b9150611f7682611f0f565b604082019050919050565b60006020820190508181036000830152611f9a81611f5e565b9050919050565b7f45524332303a206275726e20616d6f756e7420657863656564732062616c616e60008201527f6365000000000000000000000000000000000000000000000000000000000000602082015250565b6000611ffd602283611251565b915061200882611fa1565b604082019050919050565b6000602082019050818103600083015261202c81611ff0565b905091905056fea2646970667358221220735eb89367efc0c4b15dc6d1d137f99c76071ada9f5673f71f6db8247ef07db364736f6c634300080d0033",
  "immutableReferences": {},
  "source": "// SPDX-License-Identifier: MIT\r\npragma solidity ^0.8.4;\r\n\r\nimport {ERC20} from \"@openzeppelin/contracts/token/ERC20/ERC20.sol\";\r\n\r\ncontract Discount10Coupon is ERC20 {\r\n    address public licenser;\r\n\r\n    event Minted(address indexed to, uint256 amount);\r\n    event Redeemed(address indexed user, uint256 amount);\r\n\r\n    constructor(address _licenser)\r\n        ERC20(\"Discount10Coupon\", \"Discount10Coupon\")\r\n    {\r\n        licenser = _licenser;\r\n        _mint(msg.sender, 0);\r\n    }\r\n\r\n    // Function to redeem coupons\r\n    function redeem(uint256 amount) public {\r\n        require(balanceOf(msg.sender) >= amount, \"Not enough coupons to redeem\");\r\n        _burn(msg.sender, amount);\r\n        emit Redeemed(msg.sender, amount);\r\n    }\r\n\r\n    // Mint function with signature verification\r\n    function mint(address to, uint256 amount, bytes32 messageHash, bytes memory signature) public {\r\n        require(verifySignature(messageHash, signature, licenser), \"Invalid signature\");\r\n        _mint(to, amount);\r\n        emit Minted(to, amount);\r\n    }\r\n\r\n    // Function to verify signatures\r\n    function verifySignature(bytes32 messageHash, bytes memory signature, address expectedSigner) public pure returns (bool) {\r\n        bytes32 r;\r\n        bytes32 s;\r\n        uint8 v;\r\n        (v, r, s) = splitSignature(signature);\r\n\r\n        return ecrecover(messageHash, v, r, s) == expectedSigner;\r\n    }\r\n\r\n    // Function to split the signature into v, r, and s components\r\n    function splitSignature(bytes memory sig)\r\n        internal\r\n        pure\r\n        returns (uint8 v, bytes32 r, bytes32 s)\r\n    {\r\n        require(sig.length == 65, \"Invalid signature length\");\r\n\r\n        assembly {\r\n            r := mload(add(sig, 32))\r\n            s := mload(add(sig, 64))\r\n            v := byte(0, mload(add(sig, 96)))\r\n        }\r\n\r\n        return (v, r, s);\r\n    }\r\n}\r\n",
  "sourcePath": "C:\\Users\\Max\\Developer\\viva\\contracts\\discount10coupon.sol",
  "compiler": {
    "name": "solc",
    "version": "0.8.13+commit.abaa5c0e.Emscripten.clang"
  },
  "schemaVersion": "3.4.16",
  "updatedAt": "2024-05-15T07:08:27.822Z",
  "networkType": "ethereum",
  "devdoc": {
    "kind": "dev",
    "methods": {
      "allowance(address,address)": {
        "details": "See {IERC20-allowance}."
      },
      "approve(address,uint256)": {
        "details": "See {IERC20-approve}. Requirements: - `spender` cannot be the zero address."
      },
      "balanceOf(address)": {
        "details": "See {IERC20-balanceOf}."
      },
      "decimals()": {
        "details": "Returns the number of decimals used to get its user representation. For example, if `decimals` equals `2`, a balance of `505` tokens should be displayed to a user as `5,05` (`505 / 10 ** 2`). Tokens usually opt for a value of 18, imitating the relationship between Ether and Wei. This is the value {ERC20} uses, unless this function is overloaded; NOTE: This information is only used for _display_ purposes: it in no way affects any of the arithmetic of the contract, including {IERC20-balanceOf} and {IERC20-transfer}."
      },
      "decreaseAllowance(address,uint256)": {
        "details": "Atomically decreases the allowance granted to `spender` by the caller. This is an alternative to {approve} that can be used as a mitigation for problems described in {IERC20-approve}. Emits an {Approval} event indicating the updated allowance. Requirements: - `spender` cannot be the zero address. - `spender` must have allowance for the caller of at least `subtractedValue`."
      },
      "increaseAllowance(address,uint256)": {
        "details": "Atomically increases the allowance granted to `spender` by the caller. This is an alternative to {approve} that can be used as a mitigation for problems described in {IERC20-approve}. Emits an {Approval} event indicating the updated allowance. Requirements: - `spender` cannot be the zero address."
      },
      "name()": {
        "details": "Returns the name of the token."
      },
      "symbol()": {
        "details": "Returns the symbol of the token, usually a shorter version of the name."
      },
      "totalSupply()": {
        "details": "See {IERC20-totalSupply}."
      },
      "transfer(address,uint256)": {
        "details": "See {IERC20-transfer}. Requirements: - `recipient` cannot be the zero address. - the caller must have a balance of at least `amount`."
      },
      "transferFrom(address,address,uint256)": {
        "details": "See {IERC20-transferFrom}. Emits an {Approval} event indicating the updated allowance. This is not required by the EIP. See the note at the beginning of {ERC20}. Requirements: - `sender` and `recipient` cannot be the zero address. - `sender` must have a balance of at least `amount`. - the caller must have allowance for ``sender``'s tokens of at least `amount`."
      }
    },
    "version": 1
  },
  "userdoc": {
    "kind": "user",
    "methods": {},
    "version": 1
  }
}