{
  "contractName": "gfg",
  "abi": [
    {
      "anonymous": false,
      "inputs": [
        {
          "indexed": true,
          "internalType": "address",
          "name": "to",
          "type": "address"
        },
        {
          "indexed": false,
          "internalType": "uint256",
          "name": "amount",
          "type": "uint256"
        }
      ],
      "name": "Mint",
      "type": "event"
    },
    {
      "anonymous": false,
      "inputs": [
        {
          "indexed": true,
          "internalType": "address",
          "name": "from",
          "type": "address"
        },
        {
          "indexed": true,
          "internalType": "address",
          "name": "to",
          "type": "address"
        },
        {
          "indexed": false,
          "internalType": "uint256",
          "name": "value",
          "type": "uint256"
        }
      ],
      "name": "Transfer",
      "type": "event"
    },
    {
      "inputs": [],
      "name": "decimals",
      "outputs": [
        {
          "internalType": "uint8",
          "name": "",
          "type": "uint8"
        }
      ],
      "stateMutability": "view",
      "type": "function",
      "constant": true
    },
    {
      "inputs": [],
      "name": "name",
      "outputs": [
        {
          "internalType": "string",
          "name": "",
          "type": "string"
        }
      ],
      "stateMutability": "view",
      "type": "function",
      "constant": true
    },
    {
      "inputs": [],
      "name": "symbol",
      "outputs": [
        {
          "internalType": "string",
          "name": "",
          "type": "string"
        }
      ],
      "stateMutability": "view",
      "type": "function",
      "constant": true
    },
    {
      "inputs": [],
      "name": "getTotalSupply",
      "outputs": [
        {
          "internalType": "uint256",
          "name": "",
          "type": "uint256"
        }
      ],
      "stateMutability": "view",
      "type": "function",
      "constant": true
    },
    {
      "inputs": [
        {
          "internalType": "address",
          "name": "account",
          "type": "address"
        }
      ],
      "name": "balanceOf",
      "outputs": [
        {
          "internalType": "uint256",
          "name": "",
          "type": "uint256"
        }
      ],
      "stateMutability": "view",
      "type": "function",
      "constant": true
    },
    {
      "inputs": [
        {
          "internalType": "address",
          "name": "to",
          "type": "address"
        },
        {
          "internalType": "uint256",
          "name": "amount",
          "type": "uint256"
        }
      ],
      "name": "mint",
      "outputs": [],
      "stateMutability": "nonpayable",
      "type": "function"
    },
    {
      "inputs": [],
      "name": "geeks",
      "outputs": [
        {
          "internalType": "string",
          "name": "",
          "type": "string"
        }
      ],
      "stateMutability": "pure",
      "type": "function",
      "constant": true
    }
  ],
  "bytecode": "0x608060405234801561001057600080fd5b50610756806100206000396000f3fe608060405234801561001057600080fd5b506004361061007d5760003560e01c806370a082311161005b57806370a08231146100da57806395d89b411461010a578063c4e41b2214610128578063f1a62c71146101465761007d565b806306fdde0314610082578063313ce567146100a057806340c10f19146100be575b600080fd5b61008a610164565b604051610097919061047b565b60405180910390f35b6100a861019d565b6040516100b591906104b9565b60405180910390f35b6100d860048036038101906100d3919061056d565b6101a2565b005b6100f460048036038101906100ef91906105ad565b610337565b60405161010191906105e9565b60405180910390f35b61011261037f565b60405161011f919061047b565b60405180910390f35b6101306103b8565b60405161013d91906105e9565b60405180910390f35b61014e6103c2565b60405161015b919061047b565b60405180910390f35b6040518060400160405280600981526020017f4765656b546f6b656e000000000000000000000000000000000000000000000081525081565b601281565b600073ffffffffffffffffffffffffffffffffffffffff168273ffffffffffffffffffffffffffffffffffffffff1603610211576040517f08c379a000000000000000000000000000000000000000000000000000000000815260040161020890610650565b60405180910390fd5b8060016000828254610223919061069f565b92505081905550806000808473ffffffffffffffffffffffffffffffffffffffff1673ffffffffffffffffffffffffffffffffffffffff1681526020019081526020016000206000828254610278919061069f565b925050819055508173ffffffffffffffffffffffffffffffffffffffff167f0f6798a560793a54c3bcfe86a93cde1e73087d944c0ea20544137d4121396885826040516102c591906105e9565b60405180910390a28173ffffffffffffffffffffffffffffffffffffffff16600073ffffffffffffffffffffffffffffffffffffffff167fddf252ad1be2c89b69c2b068fc378daa952ba7f163c4a11628f55a4df523b3ef8360405161032b91906105e9565b60405180910390a35050565b60008060008373ffffffffffffffffffffffffffffffffffffffff1673ffffffffffffffffffffffffffffffffffffffff168152602001908152602001600020549050919050565b6040518060400160405280600381526020017f474647000000000000000000000000000000000000000000000000000000000081525081565b6000600154905090565b60606040518060600160405280602b81526020016106f6602b9139905090565b600081519050919050565b600082825260208201905092915050565b60005b8381101561041c578082015181840152602081019050610401565b8381111561042b576000848401525b50505050565b6000601f19601f8301169050919050565b600061044d826103e2565b61045781856103ed565b93506104678185602086016103fe565b61047081610431565b840191505092915050565b600060208201905081810360008301526104958184610442565b905092915050565b600060ff82169050919050565b6104b38161049d565b82525050565b60006020820190506104ce60008301846104aa565b92915050565b600080fd5b600073ffffffffffffffffffffffffffffffffffffffff82169050919050565b6000610504826104d9565b9050919050565b610514816104f9565b811461051f57600080fd5b50565b6000813590506105318161050b565b92915050565b6000819050919050565b61054a81610537565b811461055557600080fd5b50565b60008135905061056781610541565b92915050565b60008060408385031215610584576105836104d4565b5b600061059285828601610522565b92505060206105a385828601610558565b9150509250929050565b6000602082840312156105c3576105c26104d4565b5b60006105d184828501610522565b91505092915050565b6105e381610537565b82525050565b60006020820190506105fe60008301846105da565b92915050565b7f4d696e7420746f20746865207a65726f20616464726573730000000000000000600082015250565b600061063a6018836103ed565b915061064582610604565b602082019050919050565b600060208201905081810360008301526106698161062d565b9050919050565b7f4e487b7100000000000000000000000000000000000000000000000000000000600052601160045260246000fd5b60006106aa82610537565b91506106b583610537565b9250827fffffffffffffffffffffffffffffffffffffffffffffffffffffffffffffffff038211156106ea576106e9610670565b5b82820190509291505056fe486579207468657265212049206d206c6561726e696e672066726f6d204765656b73466f724765656b7321a26469706673582212209ea917505db052f1484d3dc30cd8ec489a767d045311c440c64df959ce89de7664736f6c634300080d0033",
  "immutableReferences": {},
  "source": "// SPDX-License-Identifier: MIT\r\npragma solidity >=0.5.0 <0.9.0;\r\n\r\ncontract gfg {\r\n    string public constant name = \"GeekToken\";\r\n    string public constant symbol = \"GFG\";\r\n    uint8 public constant decimals = 18;\r\n\r\n    event Transfer(address indexed from, address indexed to, uint256 value);\r\n    event Mint(address indexed to, uint256 amount);\r\n\r\n    mapping(address => uint256) balances;\r\n\r\n    uint256 totalSupply;\r\n\r\n    // Return total supply of the token\r\n    function getTotalSupply() public view returns (uint256) {\r\n        return totalSupply;\r\n    }\r\n\r\n    // Return balance of a given account\r\n    function balanceOf(address account) public view returns (uint256) {\r\n        return balances[account];\r\n    }\r\n\r\n    // Mint new tokens to a specified address\r\n    function mint(address to, uint256 amount) public {\r\n        require(to != address(0), \"Mint to the zero address\");\r\n\r\n        totalSupply += amount;\r\n        balances[to] += amount;\r\n        emit Mint(to, amount);\r\n        emit Transfer(address(0), to, amount);\r\n    }\r\n\r\n    // Simple message function\r\n    function geeks() public pure returns (string memory) {\r\n        return 'Hey there! I m learning from GeeksForGeeks!';\r\n    }\r\n}\r\n",
  "sourcePath": "C:\\Users\\Max\\Developer\\viva\\contracts\\test.sol",
  "compiler": {
    "name": "solc",
    "version": "0.8.13+commit.abaa5c0e.Emscripten.clang"
  },
  "schemaVersion": "3.4.16",
  "updatedAt": "2024-05-15T07:08:27.849Z",
  "networkType": "ethereum",
  "devdoc": {
    "kind": "dev",
    "methods": {},
    "version": 1
  },
  "userdoc": {
    "kind": "user",
    "methods": {},
    "version": 1
  }
}